MPLINK 4.46, Linker
Linker Map File - Created Tue Nov 10 22:00:53 2020

                                 Section Info
                  Section       Type    Address   Location Size(Bytes)
                ---------  ---------  ---------  ---------  ---------
                   .org_0       code   0x000000    program   0x000000
                   .org_1       code   0x000000    program   0x000012



                              Program Memory Usage 
                               Start         End      
                           ---------   ---------      
                            0x000000    0x000008      
            9 out of 1094 program addresses used, program memory utilization is 0%



                              Symbols - Sorted by Name
                     Name    Address   Location    Storage File                     
                ---------  ---------  ---------  --------- ---------                
                   Inicio   0x000000    program     static Z:\home\isaac\Escritorio\ZAC\UNEDL\moni\and\and.asm
                Principal   0x000005    program     static Z:\home\isaac\Escritorio\ZAC\UNEDL\moni\and\and.asm



                              Symbols - Sorted by Address
                     Name    Address   Location    Storage File                     
                ---------  ---------  ---------  --------- ---------                
                   Inicio   0x000000    program     static Z:\home\isaac\Escritorio\ZAC\UNEDL\moni\and\and.asm
                Principal   0x000005    program     static Z:\home\isaac\Escritorio\ZAC\UNEDL\moni\and\and.asm


